:020000040800F2
:1000000000500020393F0008373F0008353F000806
:10001000353F0008353F0008353F0008000000006C
:100020000000000000000000000000008132000815
:10003000373F00080000000001350008493500087E
:10004000353F0008353F0008353F0008353F0008C0
:10005000353F0008353F0008353F0008353F0008B0
:10006000353F0008353F0008353F0008353F0008A0
:10007000353F0008353F0008353F0008353F000890
:10008000353F0008353F0008353F0008353F000880
:10009000353F0008353F0008353F0008353F000870
:1000A000353F0008353F0008353F0008353F000860
:1000B000353F0008353F0008353F0008353F000850
:1000C000353F0008353F0008353F0008353F000840
:1000D000353F0008ED060008353F0008353F0008B1
:1000E000353F0008353F0008353F0008353F000820
:1000F000353F0008353F0008353F0008353F000810
:10010000353F0008353F0008353F0008353F0008FF
:10011000353F0008353F0008353F0008353F0008EF
:10012000353F0008353F0008353F0008353F0008DF
:10013000353F0008353F0008353F0008353F0008CF
:10014000353F0008353F0008353F0008353F0008BF
:1001500080B500AF084803F021FE00F00FF801F071
:10016000EFF901F0ADF900F041FA01F09FF800F06D
:1001700043F900BFFDE700BF9053000880B500AF12
:100180004FF4407003F076FE00BF80BD80B584B0B0
:1001900000AF78600023FB730A4B1B6807F10F0167
:1001A0004FF0FF32184601F071FD0346012BF3D1E9
:1001B000054B186807F10F0100234FF0FF3201F0E3
:1001C000ADFBE9E7600000206400002080B5A0B02E
:1001D00000AF7860002387F87E3007F140031846AF
:1001E00000F064FE1D4B1B6807F17E014FF0FF32EB
:1001F000184601F04BFD0346012B2DD1184B1B680F
:100200000133174A136097F87E1007F10C0207F1CB
:100210004003184600F056FE034687F87F3097F8F3
:100220007F30012B0ED10F4B1B6801330D4A136039
:100230000D4B186807F10C0100234FF0FF3201F05D
:100240006DFBCFE797F87F30022BCBD1074B1B68B4
:100250000133064A1360C5E700BFC3E7640000200E
:100260007400002078000020680000207C0000203E
:1002700080B400AF024B1B681846BD4680BC704777
:100280007400002080B400AF024B1B681846BD46C6
:1002900080BC70477800002080B400AF024B1B6820
:1002A0001846BD4680BC70477C00002080B590B0E9
:1002B00000AF78600A4B1B6807F10C014FF0FF326A
:1002C000184601F0E3FC0346012BF3D1054B1968F6
:1002D000054B1A6807F10C03184600F0F7FFE9E731
:1002E000680000206C0000207000002080B592B0F3
:1002F00000AF786002F058FA03463B6400237B6449
:1003000007F10C03796C184601F068F80346002BDE
:1003100008D0164B186807F10C0100234FF0FF328C
:1003200001F0FCFA796C124BA3FB01239A081346E7
:100330009B001344CA1A002A0DD107F10C0318467A
:1003400001F072F8094B186807F10C0100234FF017
:10035000FF3201F0E3FA7B6C01337B6407F1400369
:100360004FF47A71184601F0FFFFC9E76C000020D6
:10037000CDCCCCCC80B58AB000AF7860084B1B6880
:1003800007F108014FF0FF32184601F07FFC0346E9
:10039000012BF3D107F10803184601F0E7F8EDE768
:1003A0007000002080B5A0B000AF78600023BB6073
:1003B000104B1B6807F14C014FF0FF32184601F05B
:1003C00065FC0346012B13D107F1080307F10C016B
:1003D00007F14C00402200F04CFB0346002BE7D015
:1003E000BA6807F10C031146184600F049F9DFE737
:1003F00000BFDDE76C00002080B588B002AF0022AE
:100400000121402001F01CFA0346604A13600022DB
:100410000121402001F014FA03465D4A13600022D6
:100420003321082001F00CFA03465A4A13600022D7
:100430003321082001F004FA0346574A13600022D2
:100440002021082001F0FCF90346544A13604F4B69
:100450001B68002B0BD14FF0500383F31188BFF3BF
:100460006F8FBFF34F8F7B6100BF00BFFDE7484B2D
:100470001B68002B0BD14FF0500383F31188BFF39F
:100480006F8FBFF34F8F3B6100BF00BFFDE7414B54
:100490001B68002B0BD14FF0500383F31188BFF37F
:1004A0006F8FBFF34F8FFB6000BF00BFFDE73A4B7C
:1004B0001B68002B0BD14FF0500383F31188BFF35F
:1004C0006F8FBFF34F8FBB6000BF00BFFDE7334BA3
:1004D0001B68002B0BD14FF0500383F31188BFF33F
:1004E0006F8FBFF34F8F7B6000BF00BFFDE7274BCF
:1004F0001B68184600F06CF8002301930323009357
:100500000023A0222649274801F0EEFD0023019395
:10051000032300930023C0222349244801F0E4FD73
:1005200000230193022300930023C0222049214885
:1005300001F0DAFD00230193022300930023C0227F
:100540001D491E4801F0D0FD0023019302230093B2
:100550000023A0221A491B4801F0C6FD0023019385
:10056000022300930023C0221749184801F0BCFD64
:1005700001F0C6FF4FF0500383F31188BFF36F8F74
:10058000BFF34F8F3B6000BF00BFFDE7600000205E
:1005900064000020680000206C0000207000002033
:1005A000C05100088D010008C8510008CD010008A5
:1005B000D0510008AD020008D4510008ED02000837
:1005C000E051000875030008EC510008A50300087D
:1005D00080B483B000AF7860034A7B68136000BFCB
:1005E0000C37BD4680BC70478000002080B500AF4E
:1005F00040F2023003F03EFC40F20E3003F03AFCD1
:100600004FF40073022203211B4803F095FA4FF4C4
:10061000806302220021184803F08EFA4FF48061B3
:10062000154803F0B8FA4FF4E131144803F02FFCF9
:100630000821124803F036FC0021104803F03BFC6F
:100640000C210E4803F043FC00210C4803F039FC58
:1006500000210A4803F041FC5021252003F0C2FC90
:10066000252003F0B3FC054803F04DFC034803F0DC
:100670003AFC00BF80BD00BF0008014000380140C7
:1006800080B584B000AF786039607B68002B12D0F1
:100690000023FB600AE07A68FB6813441B78194664
:1006A000074803F025FCFB680133FB60FA683B68F0
:1006B0009A42F0D300E000BF1037BD4680BD00BFB6
:1006C0000038014080B400AF024B1B681846BD469D
:1006D00080BC70478400002080B400AF024B1B68D0
:1006E0001846BD4680BC70478800002080B582B0A7
:1006F00000AF00237B6020211B4803F015FC03465C
:1007000083F00103DBB2002B29D1174803F004FC6E
:100710000346DBB2FB70154B1B680133134A1360B1
:10072000134B1B68002B0ED0114B18683A1DF91C97
:10073000002301F0F5F90346012B04D00D4B1B6893
:1007400001330C4A13607B68002B09D00A4B4FF031
:1007500080521A60BFF34F8FBFF36F8F00E000BF6E
:100760000837BD4680BD00BF00380140840000202E
:10077000800000208800002004ED00E080B483B0F9
:1007800000AF0346FB71FB79092B03D8FB793033AB
:10079000DBB202E0FB793733DBB218460C37BD46DB
:1007A00080BC704780B483B000AF0346FB71FB7917
:1007B000052B01D8012300E0002318460C37BD4665
:1007C00080BC704780B485B000AF78600B46FB708A
:1007D0007B68002B01D100231AE00023FB7312E099
:1007E000FB7B7A6813441B78BB73BB7B1F2B05D93B
:1007F000BB7B7E2B02D8BB7B402B01D1002307E0C3
:10080000FB7B0133FB73FA7BFB789A42E8D301232D
:1008100018461437BD4680BC704780B483B000AF23
:100820000346FB71FB792F2B05D9FB79392B02D8B5
:10083000FB79303B0AE0FB79402B05D9FB79462B4D
:1008400002D8FB79373B01E04FF0FF3318460C37F5
:10085000BD4680BC704780B485B000AF7860396019
:100860000023FB727B68002B01D1002311E00023E1
:10087000FB6009E07A68FB6813441A78FB7A5340FE
:10088000FB72FB680133FB60FA683B689A42F1D364
:10089000FB7A18461437BD4680BC704780B582B0DD
:1008A00000AF7860396039687868FFF7D4FF034695
:1008B00018460837BD4680BD80B483B000AF0346FC
:1008C000FB71FB79052B1BD801A252F823F000BF66
:1008D000E9080008ED080008F1080008F50800081C
:1008E000F9080008FD080008084B0AE0084B08E07A
:1008F000084B06E0084B04E0084B02E0084B00E020
:10090000084B18460C37BD4680BC7047F4510008B0
:10091000F8510008FC510008005200080452000879
:10092000085200080C52000880B582B000AF786011
:100930007B68002B01D1062344E0786803F06CFB50
:100940000346032B01D006233CE003221F497868AD
:1009500003F08CFC0346002B01D1002332E003227C
:100960001B49786803F082FC0346002B01D1012368
:1009700028E003221749786803F078FC0346002B2F
:1009800001D102231EE003221349786803F06EFCB4
:100990000346002B01D1032314E003220F4978689A
:1009A00003F064FC0346002B01D104230AE0032278
:1009B0000B49786803F05AFC0346002B01D105234C
:1009C00000E0062318460837BD4680BDF4510008F4
:1009D000F8510008FC5100080052000804520008B9
:1009E0000852000880B586B000AFF8600B467A6008
:1009F000FB72FB68002B02D07B68002B01D1002327
:100A000033E0FB7A1846FFF7CDFE034683F001037F
:100A1000DBB2002B01D0002327E0786803F0FCFA5A
:100A200078617B69302B01D900231EE07B69DBB242
:100A300019467868FFF7C6FE034683F00103DBB270
:100A4000002B01D0002310E0FB68FA7A1A707B6952
:100A5000DAB2FB6883F83220FB68581C7B690133EB
:100A60001A46796803F056FB012318461837BD462D
:100A700080BD90B5A5B000AFF860B9607A603B600A
:100A80000023C7F88C303B68002B02D03B68002263
:100A90001A60FB68002B02D0BB68002B01D1002339
:100AA00006E1FB681B781846FFF77CFE034683F0DF
:100AB0000103DBB2002B01D00023F9E0FB6893F8BF
:100AC0003230302B01D90023F2E0FB685A1CFB685E
:100AD00093F8323019461046FFF774FE034683F050
:100AE0000103DBB2002B01D00023E1E0FB681B789F
:100AF0001846FFF7E1FEC7F88800FB6893F832302C
:100B0000043387F8873097F887300833C7F8803088
:100B100097F88730342B04D87A68D7F880309A4217
:100B200001D20023C4E007F148030322D7F888105C
:100B3000184603F0EFFA3A2387F84B30FB68591C4C
:100B4000FB6893F832301A4607F14803043318461D
:100B500003F0E0FA97F8873090333B44002203F823
:100B6000482C97F887301B09DBB21846FFF706FEC2
:100B700003463B7497F8873003F00F03DBB2184647
:100B8000FFF7FCFD03467B743A23BB7497F887207C
:100B900007F1480107F110030333184603F0BAFACE
:100BA00097F88730DA1C07F1100311461846FFF753
:100BB00075FE034687F87F30D7F88C305A1CC7F88B
:100BC0008C20BA68134440221A70D7F88C305A1C13
:100BD000C7F88C20BA6813443A7C1A70D7F88C3066
:100BE0005A1CC7F88C20BA6813447A7C1A70D7F85C
:100BF0008C305A1CC7F88C20BA6813443A221A70F9
:100C0000BA68D7F88C30134497F8872007F1480169
:100C1000184603F07FFA97F88730D7F88C201344F2
:100C2000C7F88C30D7F88C305A1CC7F88C20BA68BB
:100C300013443A221A7097F87F301B09D9B2D7F8BB
:100C40008C305A1CC7F88C20BA68D4180846FFF7B5
:100C500095FD0346237097F87F3003F00F03D9B258
:100C6000D7F88C305A1CC7F88C20BA68D4180846BC
:100C7000FFF784FD03462370D7F88C305A1CC7F861
:100C80008C20BA6813440A221A707A68D7F88C301C
:100C90009A4205D9BA68D7F88C30134400221A70EA
:100CA0003B68002B03D03B68D7F88C201A600123E7
:100CB00018469437BD4690BD80B586B000AFF86049
:100CC0000B467A60FB72FB68002B02D07B68002B1E
:100CD00001D1002351E0FB7A032B02D9FB7A342B9C
:100CE00001D9002349E0FB6803331B783A2B01D07C
:100CF000002342E007F110030322F968184603F0CD
:100D000009FA0023FB7407F110031846FFF70CFEE5
:100D10000346FB75FB7D1846FFF744FD034683F051
:100D20000103DBB2002B01D0002326E0FB7A043B59
:100D3000BB75FB680433BA7D11461846FFF742FDC8
:100D4000034683F00103DBB2002B01D0002314E043
:100D50007B68FA7D1A707B68BA7D83F832207B68E5
:100D6000581CFB680433BA7D194603F0D3F9BB7DE8
:100D70007A68134400225A70012318461837BD467A
:100D800080BD80B483B000AF0346FB71FB792F2B8D
:100D900004D9FB79392B01D8012308E0FB79402BDA
:100DA00004D9FB79462B01D8012300E00023184623
:100DB0000C37BD4680BC704780B584B000AF78600A
:100DC0007B681B781846FFF728FDF8607B680133C5
:100DD0001B781846FFF721FDB860FB685BB21B016A
:100DE0005AB2BB685BB213435BB2DBB21846103732
:100DF000BD4680BD80B483B000AF0346FB71FB7974
:100E00001F2B02D9FB797E2B01D9002305E0FB794A
:100E1000402B01D1002300E0012318460C37BD46CA
:100E200080BC704780B582B000AF78600B46FB7025
:100E3000786800F00BF8FB78402B02D17B68012228
:100E40001A70022318460837BD4680BD80B483B0AF
:100E500000AF78607B68002B23D07B6800221A707B
:100E60007B6800225A707B6800229A707B6800229F
:100E7000DA707B6800221A717B68002283F83920BF
:100E80007B68002283F83A207B68002283F83B20AD
:100E90007B68002283F83C207B68002283F83D2099
:100EA00000E000BF0C37BD4680BC704780B582B003
:100EB00000AF78607868FFF7C9FF00BF0837BD460C
:100EC00080BD000080B594B000AFF8600B467A603A
:100ED000FB72FB68002B02D07B68002B01D1022340
:100EE00077E1FB7A0D2B01D1002372E1FB681B78BF
:100EF000082B00F26A8101A252F823F0210F0008AA
:100F0000370F0008690F0008E50F00080B100008F4
:100F10008F100008AD100008E11000081D11000836
:100F2000FB7A402B05D1F868FFF790FFFB680122A0
:100F30001A7000234DE1FB7A1846FFF722FF0346A3
:100F400083F00103DBB2002B06D0FB7A1946F86868
:100F5000FFF768FF03463CE1FB68FA7A5A70FB68CA
:100F600002221A70002334E1FB7A1846FFF709FFCA
:100F7000034683F00103DBB2002B06D0FB7A19464F
:100F8000F868FFF74FFF034623E1FB68FA7A9A708F
:100F9000FB680022DA70FB6801331846FFF70CFF8C
:100FA00003461A46FB6883F83C20FB6893F83C3004
:100FB000032B06D8FB7A1946F868FFF733FF034680
:100FC00007E1FB6893F83C30342B06D9FB7A1946CD
:100FD000F868FFF727FF0346FBE0FB6803221A705F
:100FE0000023F6E0FB7A3A2B06D0FB7A1946F86824
:100FF000FFF718FF0346ECE0FB68002283F83D2072
:10100000FB6804221A700023E3E0FB7A1846FFF71E
:10101000F1FE034683F00103DBB2002B06D0FB7A1E
:101020001946F868FFF7FEFE0346D2E0FB6893F826
:101030003D30332B06D9FB7A1946F868FFF7F2FEEC
:101040000346C6E0FB6893F83D301A46FB6813443C
:10105000FA7A1A71FB6893F83D300133DAB2FB6813
:1010600083F83D20FB6893F83D20FB6893F83C3003
:101070009A420AD1FB6893F83D301A46FB68134444
:1010800000221A71FB6805221A700023A1E0FB7A86
:101090003A2B06D0FB7A1946F868FFF7C3FE0346E1
:1010A00097E0FB6806221A70002392E0FB7A18464C
:1010B000FFF767FE034683F00103DBB2002B06D087
:1010C000FB7A1946F868FFF7ADFE034681E0FB683E
:1010D000FA7A83F83920FB6807221A70002378E037
:1010E000FB7A1846FFF74DFE034683F00103DBB29F
:1010F000002B06D0FB7A1946F868FFF793FE0346EB
:1011000067E0FB68FA7A83F83A20FB68002283F8EC
:101110003B20FB6808221A7000235AE0FB7A0A2B56
:1011200006D0FB7A1946F868FFF77CFE034650E0CC
:10113000FB685B783B75FB689B787B753A23BB75D6
:10114000FB68191DFB6893F83C301A4607F114033D
:101150000333184602F0DEFFFB6839331846FFF709
:101160002BFE034687F84F30FB6893F83C30DA1CBF
:1011700007F1140311461846FFF790FB034687F862
:101180004E3097F84F2097F84E309A4204D0F868C6
:10119000FFF75CFE02231CE0FB68181DFB6893F858
:1011A0003C307A681946FFF787FD034683F0010358
:1011B000DBB2002B04D0F868FFF748FE022308E0FA
:1011C000F868FFF743FE012303E0F868FFF73EFEEF
:1011D000022318465037BD4680BD00BF80B592B08F
:1011E00000AFF8600B467A60FB72F97A07F11403DE
:1011F0007A681846FFF7F6FB0346002B07D007F185
:10120000140100234FF0FF32F86800F087FB00BFA5
:101210004837BD4680BD80B582B000AF7860396088
:101220003968786803F068F80346002B0CBF012387
:101230000023DBB218460837BD4680BD80B584B0B8
:1012400000AF786039600023FB6021E0154AFB683D
:1012500052F8333019467868FFF7DDFF0346002B5C
:1012600013D03B680F221049184602F0C9FF3B68B3
:1012700003F110000B4AFB68DB0013445B680F228C
:10128000194602F0BDFF012307E0FB680133FB6054
:101290000322FB689342D9D3002318461037BD467A
:1012A00080BD00BFD85200083C52000880B400AF97
:1012B000044B00221A60044B00221A6000BFBD4696
:1012C00080BC70478C0000209000002080B59AB050
:1012D00000AFF860B9607A6007F14803202200216E
:1012E000184602F0C7FEFB68002B63D0BB68002BDA
:1012F00060D07B68002B5DD0304B1B6801332F4AD8
:101300001360FB681B78002B0AD02D4A0521B868B2
:10131000FFF764FF2B4B1B6801332A4A13604AE036
:10132000FB68013307F1480211461846FFF786FFB4
:101330000346002B0DD007F1480100234FF0FF3288
:10134000786800F0EBFA204A0421B868FFF746FFFE
:1013500031E0FB6801331D491846FFF75CFF034687
:10136000002B05D01A4A0421B868FFF737FF22E0A6
:10137000FB68013317491846FFF74DFF0346002B62
:101380000DD007F11403184600F04EF807F11401D0
:1013900000234FF0FF32B86800F0C0FA0BE00E4AAD
:1013A0000521B868FFF71AFF064B1B680133054A91
:1013B000136000E000BF6837BD4680BD8C00002090
:1013C0004052000890000020585200086052000867
:1013D00068520008705200087852000880B590B03A
:1013E00000AF786039607B68002B01D1002316E0E4
:1013F00007F10C033A683121184600F067F80346FC
:1014000083F00103DBB2002B01D0002307E007F1DA
:101410000C031A4601217868FFF7E4FA03461846E0
:101420004037BD4680BD0000F0B599B006AFF8600A
:10143000FB68002B37D01E4B1D681E4B1C68FFF746
:1014400041F90646FEF714FFB860FEF71BFF78600F
:10145000FEF722FF3860FFF73FF9034607F110005F
:1014600005933B6804937B680393BB6802930196E2
:1014700000942B46104A312103F05CF878647B6CB1
:10148000002B02DB7B6C302B05D90C4A0521F86858
:10149000FFF7A8FA08E007F110031A460321F868DD
:1014A000FFF7A0FA00E000BF4C37BD46F0BD00BF1B
:1014B0008C000020900000208C520008C0520008D0
:1014C00080B400AF00BFBD4680BC704780B588B017
:1014D00002AFF860B9607A60FB68002B02D0BB688D
:1014E000002B01D1002322E07968134BA3FB0123D9
:1014F000DA0813469B0013445B00CA1A02F1140376
:101500007B617B6800937B690C4AB968F86803F0DB
:1015100011F838613B69002B05DD3B69BA689A42D6
:1015200001D9012300E0002303F00103DBB21846D8
:101530001837BD4680BD00BFCDCCCCCCF0520008E2
:1015400080B500AF4FF4417002F094FC4FF40053AB
:1015500000220221044802F0EFFA4FF40051024841
:1015600002F019FB00BF80BD0010014080B582B0C1
:1015700000AF78607B68002B34D07B681C4918462C
:1015800002F0BAFE0346002B2ED17B6810331949B6
:10159000184602F0B1FE0346002B05D14FF400516E
:1015A000154802F0FAFA20E07B6810331349184618
:1015B00002F0A2FE0346002B05D14FF400510E4865
:1015C00002F0E9FA11E07B6810330D49184602F089
:1015D00093FE0346002B08D14FF40051064802F059
:1015E000DFFA02E000BF00E000BF0837BD4680BD63
:1015F000005300080453000800100140085300087D
:101600000C53000880B483B000AF78607B6803F1AE
:1016100008027B685A607B684FF0FF329A607B68F3
:1016200003F108027B68DA607B6803F108027B68DB
:101630001A617B6800221A6000BF0C37BD4680BC6F
:10164000704780B483B000AF78607B6800221A6175
:1016500000BF0C37BD4680BC704780B485B000AF7A
:10166000786039603B681B68BB60BB68B3F1FF3FC3
:1016700003D17B681B69FB600CE07B680833FB606F
:1016800002E0FB685B68FB60FB685B681B68BA682C
:101690009A42F6D2FB685A683B685A603B685B68BE
:1016A0003A689A603B68FA689A60FB683A685A60E0
:1016B0003B687A681A617B681B685A1C7B681A60F1
:1016C00000BF1437BD4680BC704780B485B000AF02
:1016D00078607B681B69FB607B685B687A689268EE
:1016E0009A607B689B687A6852685A60FB685B689E
:1016F0007A689A4203D17B689A68FB685A607B6873
:1017000000221A61FB681B685A1EFB681A60FB689E
:101710001B6818461437BD4680BC704780B586B03C
:1017200000AF7860396001237B617B683B613B6976
:10173000002B0BD14FF0500383F31188BFF36F8F51
:10174000BFF34F8FFB6000BF00BFFDE73B69002B7D
:101750005DD03B69DB6B002B59D03B691A6C3B6950
:10176000DB6B0021A3FB0223002B00D001210B46E1
:10177000002B4CD101F068FE3B691A683B69DB6BBA
:101780003969096C01FB03F31A443B699A603B69B0
:1017900000229A633B691A683B695A603B691A6880
:1017A0003B69DB6B013B3969096C01FB03F31A44AC
:1017B0003B69DA603B69FF2283F844203B69FF22E2
:1017C00083F845203B68002B14D13B691B69002B33
:1017D0001AD03B691033184601F09AF90346002BE2
:1017E00012D0164B4FF080521A60BFF34F8FBFF3E9
:1017F0006F8F09E03B6910331846FFF703FF3B6921
:1018000024331846FFF7FEFE01F04EFE01E00023F0
:101810007B617B69002B0BD14FF0500383F3118860
:10182000BFF36F8FBFF34F8FBB6000BF00BFFDE7FB
:101830007B6918461837BD4680BD00BF04ED00E047
:1018400080B58AB002AFF860B9601346FB7100231F
:10185000FB61FB68002B2ED00021BA68FB68A3FB5C
:101860000223002B00D001210B46002B23D1FB6863
:10187000BA6802FB03F313F1490F1CD8FB68BA687E
:1018800002FB03F3BB61BB694833184601F0D8FE85
:10189000F861FB69002B1DD0FB697B617B694833D4
:1018A0007B61FA79FB69009313467A69B968F86835
:1018B00000F015F80EE0FB69002B0BD14FF0500340
:1018C00083F31188BFF36F8FBFF34F8F3B6100BF6E
:1018D00000BFFDE7FB6918462037BD4680BD80B5D7
:1018E00084B000AFF860B9607A60FB70BB68002B11
:1018F00003D1BB69BA691A6002E0BB697A681A60F1
:10190000BB69FA68DA63BB69BA681A640121B8690D
:10191000FFF704FF00BF1037BD4680BD80B58EB015
:1019200000AFF860B9607A603B6000237B63FB68BE
:101930003B633B6B002B0BD14FF0500383F31188BB
:10194000BFF36F8FBFF34F8FBB6200BF00BFFDE7D8
:10195000BB68002B03D13B6B1B6C002B01D1012317
:1019600000E00023002B0BD14FF0500383F31188CC
:10197000BFF36F8FBFF34F8F7B6200BF00BFFDE7E8
:101980003B68022B03D13B6BDB6B012B01D10123A5
:1019900000E00023002B0BD14FF0500383F311889C
:1019A000BFF36F8FBFF34F8F3B6200BF00BFFDE7F8
:1019B00001F0C0FA0346002B02D17B68002B01D155
:1019C000012300E00023002B0BD14FF0500383F3E1
:1019D0001188BFF36F8FBFF34F8FFB6100BF00BF54
:1019E000FDE701F031FD3B6B9A6B3B6BDB6B9A4281
:1019F00002D33B68022B29D13A68B968386B00F0F2
:101A000027FAF8623B6B5B6A002B10D03B6B2433E8
:101A1000184601F07DF80346002B13D03F4B4FF0E2
:101A200080521A60BFF34F8FBFF36F8F0AE0FB6ADB
:101A3000002B07D0394B4FF080521A60BFF34F8F05
:101A4000BFF36F8F01F030FD012363E07B68002B53
:101A500003D101F029FD00235CE07B6B002B06D154
:101A600007F11403184601F02BF901237B6301F001
:101A70001BFD00F083FD01F0E7FC3B6B93F8443065
:101A80005BB2B3F1FF3F03D13B6B002283F84420EC
:101A90003B6B93F845305BB2B3F1FF3F03D13B6B37
:101AA000002283F8452001F0FFFC3A1D07F11403E2
:101AB0001146184601F01AF90346002B24D1386B61
:101AC00000F0BEFA0346002B18D03B6B10337A6847
:101AD0001146184600F0F6FF386B00F049FA00F0A6
:101AE0005BFD0346002B7FF47CAF0C4B4FF0805224
:101AF0001A60BFF34F8FBFF36F8F72E7386B00F040
:101B000037FA00F049FD6CE7386B00F031FA00F06D
:101B100043FD002318463837BD4680BD04ED00E084
:101B200080B592B000AFF860B9607A603B60FB6846
:101B30003B643B6C002B0BD14FF0500383F31188B7
:101B4000BFF36F8FBFF34F8FFB6200BF00BFFDE796
:101B5000BB68002B03D13B6C1B6C002B01D1012314
:101B600000E00023002B0BD14FF0500383F31188CA
:101B7000BFF36F8FBFF34F8FBB6200BF00BFFDE7A6
:101B80003B68022B03D13B6CDB6B012B01D10123A2
:101B900000E00023002B0BD14FF0500383F311889A
:101BA000BFF36F8FBFF34F8F7B6200BF00BFFDE7B6
:101BB00001F006FDEFF311824FF0500383F311881B
:101BC000BFF36F8FBFF34F8F3A62FB613B6AFB63DA
:101BD0003B6C9A6B3B6CDB6B9A4202D33B68022BEB
:101BE00047D13B6C93F8453087F83B303B6C9B6B9F
:101BF0007B633A68B968386C00F02AF997F93B3092
:101C0000B3F1FF3F12D13B6C5B6A002B2ED03B6CD3
:101C10002433184600F07CFF0346002B26D07B6857
:101C2000002B23D07B6801221A601FE000F0CAFD60
:101C3000386397F93B303A6B9A4217D997F93B30A2
:101C40007F2B0BD14FF0500383F31188BFF36F8FBD
:101C5000BFF34F8FBB6100BF00BFFDE797F83B307C
:101C60000133DBB25AB23B6C83F8452001237B641D
:101C700001E000237B64FB6B7B617B6983F311884C
:101C800000BF7B6C18464837BD4680BD80B58CB020
:101C900000AFF860B9607A600023FB62FB68BB624A
:101CA000BB6A002B0BD14FF0500383F31188BFF3B5
:101CB0006F8FBFF34F8F3B6200BF00BFFDE7BB6874
:101CC000002B03D1BB6A1B6C002B01D1012300E068
:101CD0000023002B0BD14FF0500383F31188BFF387
:101CE0006F8FBFF34F8FFB6100BF00BFFDE701F0B7
:101CF00021F90346002B02D17B68002B01D101237F
:101D000000E00023002B0BD14FF0500383F3118828
:101D1000BFF36F8FBFF34F8FBB6100BF00BFFDE705
:101D200001F092FBBB6A9B6B7B627B6A002B1FD02E
:101D3000B968B86A00F0F6F87B6A5A1EBB6A9A6303
:101D4000BB6A1B69002B0FD0BB6A1033184600F02A
:101D5000DFFE0346002B07D03C4B4FF080521A6049
:101D6000BFF34F8FBFF36F8F01F09EFB012369E03C
:101D70007B68002B03D101F097FB002362E0FB6A34
:101D8000002B06D107F11003184600F099FF01233C
:101D9000FB6201F089FB00F0F1FB01F055FBBB6A2F
:101DA00093F844305BB2B3F1FF3F03D1BB6A00222A
:101DB00083F84420BB6A93F845305BB2B3F1FF3F30
:101DC00003D1BB6A002283F8452001F06DFB3A1D68
:101DD00007F110031146184600F088FF0346002B58
:101DE00023D1B86A00F016F90346002B17D0BB6A5E
:101DF00024337A681146184600F064FEB86A00F091
:101E0000B7F800F0C9FB0346002B89D10F4B4FF008
:101E100080521A60BFF34F8FBFF36F8F80E7B86AAD
:101E200000F0A6F800F0B8FB7AE7B86A00F0A0F876
:101E300000F0B2FBB86A00F0EDF80346002B3FF467
:101E40006FAF002318463037BD4680BD04ED00E07B
:101E500080B586B000AFF860B9607A6000237B611E
:101E6000FB689B6B3B61FB681B6C002B0DD1FB6817
:101E70001B68002B4DD1FB689B68184601F078F871
:101E80007861FB6800229A6043E07B68002B19D1DF
:101E9000FB685868FB681B6C1A46B96802F03AF98F
:101EA000FB685A68FB681B6C1A44FB685A60FB6845
:101EB0005A68FB689B689A422BD3FB681A68FB68D8
:101EC0005A6026E0FB68D868FB681B6C1A46B96844
:101ED00002F020F9FB68DA68FB681B6C5B421A446D
:101EE000FB68DA60FB68DA68FB681B689A4207D215
:101EF000FB689A68FB681B6C5B421A44FB68DA60FB
:101F00007B68022B05D13B69002B02D03B69013B6A
:101F10003B613B695A1CFB689A637B69184618371A
:101F2000BD4680BD80B582B000AF786039607B6807
:101F30001B6C002B18D07B68DA687B681B6C1A441A
:101F40007B68DA607B68DA687B689B689A4203D3B7
:101F50007B681A687B68DA607B68D9687B681B6C71
:101F60001A46386802F0D6F800BF0837BD4680BD73
:101F700080B584B000AF786001F066FA7B6893F8B2
:101F80004530FB7311E07B685B6A002B12D07B68E5
:101F90002433184600F0BCFD0346002B01D000F0AE
:101FA0000DFFFB7B013BDBB2FB7397F90F30002B7E
:101FB000E9DC00E000BF7B68FF2283F8452001F0E8
:101FC00073FA01F041FA7B6893F84430BB7311E077
:101FD0007B681B69002B12D07B681033184600F019
:101FE00097FD0346002B01D000F0E8FEBB7B013BD0
:101FF000DBB2BB7397F90E30002BE9DC00E000BFC9
:102000007B68FF2283F8442001F04EFA00BF1037AE
:10201000BD4680BD80B584B000AF786001F014FA91
:102020007B689B6B002B02D10123FB6001E0002346
:10203000FB6001F039FAFB6818461037BD4680BDD9
:1020400080B584B000AF786001F0FEF97B689A6BD0
:102050007B68DB6B9A4202D10123FB6001E0002325
:10206000FB6001F021FAFB6818461037BD4680BDC1
:1020700080B58AB004AFF860B9607A603B607B6875
:102080009B00184601F0DCFA38613B69002B13D045
:10209000542001F0D5FA78617B69002B08D05422D6
:1020A0000021786901F0E6FF7B693A691A6305E06F
:1020B000386901F0F7FB01E000237B617B69002BAD
:1020C0000DD0002303937B6902937B6A01933B6AE3
:1020D00000933B687A68B968F86800F028F87B6973
:1020E00018461837BD4680BD80B588B002AFF8608D
:1020F000B9607A603B607B6A01933B6A00933B68FE
:102100007A68B968F868FFF7B3FF38613B69002B5C
:1021100005D0386900F094F801237B6102E04FF0AC
:10212000FF337B617B6918461837BD4680BD80B59B
:1021300088B000AFF860B9607A603B603B6B1A6BA7
:102140007B6803F18043013B9B001344BB61BB6987
:1021500023F00703BB61BB6903F00703002B0BD01F
:102160004FF0500383F31188BFF36F8FBFF34F8F8E
:102170007B6100BF00BFFDE7BB68002B1ED00023C2
:10218000FB6112E0BA68FB69134419783A6BFB698A
:10219000134434330A461A70BA68FB6913441B7837
:1021A000002B06D0FB690133FB61FB690F2BE9D9DA
:1021B00000E000BF3B6B002283F84320BB6A052B85
:1021C0000BD94FF0500383F31188BFF36F8FBFF328
:1021D0004F8F3B6100BF00BFFDE7BB6A052B01D9F4
:1021E0000523BB623B6BBA6ADA623B6BBA6A5A641C
:1021F0003B6B04331846FFF724FA3B6B1833184641
:10220000FFF71FFA3B6B3A6B1A61BB6AC3F1060218
:102210003B6B9A613B6B3A6B5A623A68F968B869F2
:1022200000F0D0FF02463B6B1A60FB6A002B02D025
:10223000FB6A3A6B1A6000BF2037BD4680BD0000C4
:1022400080B584B000AF786001F0FEF83F4B1B68AA
:1022500001333E4A13603E4B1B68002B09D13C4AB8
:102260007B681360394B1B68012B10D100F0CAFD4D
:102270000DE0384B1B68002B09D1354B1B68DA6A1F
:102280007B68DB6A9A4202D8314A7B681360324B22
:102290001B680133304A13607B68DB6A01229A4075
:1022A0002E4B1B6813432D4A13607B68DA6A2C4956
:1022B00013469B0013449B000B4404331B68FB60D4
:1022C0007B68FA689A60FB689A687B68DA60FB68EA
:1022D0009B687A6804325A607B681A1DFB689A60B2
:1022E0007B68DA6A13469B0013449B001C4A1A441D
:1022F0007B685A617B68DA6A194913469B0013446C
:102300009B000B441B687A68D26A591C1448134618
:102310009B0013449B000344196001F0C5F80D4B6A
:102320001B68002B0ED00A4B1B68DA6A7B68DB6ADD
:102330009A4207D20B4B4FF080521A60BFF34F8F77
:10234000BFF36F8F00BF1037BD4680BD80010020F6
:10235000940000208C0100209C01002088010020B6
:102360009800002004ED00E080B58AB000AF7860EE
:10237000396000237B627B68002B0BD14FF0500348
:1023800083F31188BFF36F8FBFF34F8F7B6100BF63
:1023900000BFFDE73B68002B0BD14FF0500383F3E8
:1023A0001188BFF36F8FBFF34F8F3B6100BF00BF3A
:1023B000FDE700F0E3F82A4B1B683B62294B1B68E2
:1023C000012B0BD04FF0500383F31188BFF36F8FB5
:1023D000BFF34F8FFB6000BF00BFFDE77B681B684A
:1023E0003A681344FB617B681B683A6A9A420BD2D5
:1023F0007B681B68FA699A4211D2FA693B6A9A4271
:102400000DD901237B620AE07B681B68FA699A4256
:1024100003D3FA693B6A9A4201D901237B627B6844
:10242000FA691A607B6A002B06D0FA693B6AD31AF4
:102430000021184600F044FE00F0AEF8B861BB6918
:10244000002B07D1084B4FF080521A60BFF34F8F1B
:10245000BFF36F8F7B6A18462837BD4680BD00BF2B
:1024600084010020A801002004ED00E080B58AB0BE
:1024700002AF0123FB6100233B6100237B6111E07C
:102480001C4A7B69134419783A467B6913440A460F
:102490001A703A467B6913441B78002B06D07B697F
:1024A00001337B617B690F2BEADD00E000BF002375
:1024B000BB6115E0104B3B61BB699B000F4A1344A5
:1024C0003946019300230093002380223869FFF7E7
:1024D0000BFEF861FB69002B06D0BB690133BB61C1
:1024E000BB69002BE6DD00E000BFFB691846203722
:1024F000BD4680BD18530008D52D0008A40100205A
:1025000080B584B000AFFFF7B1FFF860FB68012B26
:1025100016D14FF0500383F31188BFF36F8FBFF3D1
:102520004F8FBB6000BF114B4FF0FF321A60104B52
:1025300001221A600F4B00221A6000F0C7FE0FE064
:10254000FB68B3F1FF3F0BD14FF0500383F31188C9
:10255000BFF36F8FBFF34F8F7B6000BF00BFFDE7FE
:10256000054B1B6800BF1037BD4680BDA001002091
:102570008C010020840100201453000880B400AFB7
:10258000044B1B680133034A136000BFBD4680BC87
:10259000704700BFA801002080B588B000AF0023BD
:1025A000FB610023BB6100F04FFF00233B61754BD3
:1025B0001B68002B0BD14FF0500383F31188BFF33E
:1025C0006F8FBFF34F8F3B6000BF00BFFDE76D4BC8
:1025D0001B68013B6B4A13606A4B1B68002B40F081
:1025E000CA80694B1B68002B00F0C5808EE0674BEA
:1025F000DB68DB68FB61FB699B6AFB60FB69DB698D
:10260000FA69126A9A60FB691B6AFA69D2695A60B0
:10261000FB685A68FB6918339A4203D1FB691A6A4E
:10262000FB685A60FB6900229A62FB681B685A1EAD
:10263000FB681A60FB695B69BB60FB699B68FA69B0
:10264000D2689A60FB69DB68FA6992685A60BB6875
:102650005A68FB6904339A4203D1FB69DA68BB68A4
:102660005A60FB6900225A61BB681B685A1EBB682E
:102670001A60FB69DB6A01229A40454B1B681343D1
:10268000434A1360FB69DA6A424913469B001344CC
:102690009B000B4404331B687B60FB697A689A607B
:1026A0007B689A68FB69DA607B689B68FA69043228
:1026B0005A60FB691A1D7B689A60FB69DA6A1346E7
:1026C0009B0013449B00334A1A44FB695A61FB691F
:1026D000DA6A304913469B0013449B000B441B6885
:1026E000FA69D26A591C2B4813469B0013449B007D
:1026F00003441960FB69DA6A274B1B68DB6A9A425C
:1027000004D9264A3B69012142F823101F4B1B685C
:10271000002B7FF46CAFFB69002B01D000F0F0FBC5
:102720001F4B1B687B617B69002B12D000F054F8B3
:102730000346002B04D0194A3B69012142F82310BB
:102740007B69013B7B617B69002BEFD1144B00223D
:102750001A60124A3B6952F82330002B0BD0012338
:10276000BB610D4B1B680F4B4FF080521A60BFF3DB
:102770004F8FBFF36F8F00F097FEBB69184620376D
:10278000BD4680BDA801002080010020400100203E
:10279000880100209800002094000020940100206F
:1027A0009001002004ED00E080B483B000AF044B42
:1027B0001B687B607B6818460C37BD4680BC704741
:1027C0008401002080B400AF024B1B681846BD4650
:1027D00080BC70478001002080B58AB000AF002324
:1027E0007B627F4B1B68002B40F0EF807D4B1B68AA
:1027F00001333B627B4A3B6A13603B6A002B21D169
:10280000794B1B681B68002B0BD04FF0500383F3F0
:102810001188BFF36F8FBFF34F8F7B6000BF00BF86
:10282000FDE7714B1B68FB61704B1B686E4A1360C0
:102830006E4AFB6913606E4B1B6801336C4A136070
:1028400000F05EFB6B4B1B683A6A9A42C0F0A880AE
:10285000654B1B681B68002B04D1664B4FF0FF32A1
:102860001A609DE0604B1B68DB68DB68BB61BB697D
:102870005B687B613A6A7B699A4203D25D4A7B69F5
:1028800013608DE0BB695B693B61BB699B68BA699A
:10289000D2689A60BB69DB68BA6992685A603B6922
:1028A0005A68BB6904339A4203D1BB69DA683B6951
:1028B0005A60BB6900225A613B691B685A1E3B691A
:1028C0001A60BB699B6A002B1ED0BB699B6AFB60C8
:1028D000BB69DB69BA69126A9A60BB691B6ABA692B
:1028E000D2695A60FB685A68BB6918339A4203D1AF
:1028F000BB691A6AFB685A60BB6900229A62FB686E
:102900001B685A1EFB681A60BB69DB6A01229A4089
:10291000394B1B681343384A1360BB69DA6A37497D
:1029200013469B0013449B000B4404331B68BB609D
:10293000BB69BA689A60BB689A68BB69DA60BB68B1
:102940009B68BA6904325A60BB691A1DBB689A60F9
:10295000BB69DA6A13469B0013449B00274A1A445A
:10296000BB695A61BB69DA6A244913469B00134468
:102970009B000B441B68BA69D26A591C1F48134656
:102980009B0013449B0003441960BB69DA6A1C4B2B
:102990001B68DB6A9A427FF65BAF01237B6257E7D5
:1029A000174B1B68DA6A154913469B0013449B00BA
:1029B0000B441B68012B01D901237B62114B1B685F
:1029C000002B07D001237B6204E00F4B1B6801330F
:1029D0000D4A13607B6A18462837BD4680BD00BF8C
:1029E000A801002084010020380100203C010020C3
:1029F00098010020A00100208801002098000020FC
:102A000094000020940100209001002080B487B041
:102A100000AF274B1B68002B03D0264B01221A6006
:102A200041E0244B00221A60234B1B68FB60FB68CB
:102A3000B3FA83F3FB72FB7AC3F11F037B611F4977
:102A40007A6913469B0013449B000B441B68002BC0
:102A50000BD14FF0500383F31188BFF36F8FBFF397
:102A60004F8F7B6000BF00BFFDE77A6913469B0074
:102A700013449B00114A13443B613B695B685A68ED
:102A80003B695A603B695A683B6908339A4203D1F3
:102A90003B69DA683B695A603B695B68DB68084AF6
:102AA0001360074B1B6800BF1C37BD4680BC7047D6
:102AB000A801002094010020880100209800002037
:102AC0009400002080B584B000AF786039607B68E6
:102AD000002B0BD14FF0500383F31188BFF36F8F9E
:102AE000BFF34F8FFB6000BF00BFFDE7074B1B68C4
:102AF000183319467868FEF7B0FD0121386800F0F8
:102B0000DFFA00BF1037BD4680BD00BF9400002033
:102B100080B48BB000AF78607B68DB68DB683B62B9
:102B20003B6A002B0BD14FF0500383F31188BFF3A6
:102B30006F8FBFF34F8FFB6000BF00BFFDE73B6AA5
:102B40009B6AFB613B6ADB693A6A126A9A603B6A7C
:102B50001B6A3A6AD2695A60FB695A683B6A183341
:102B60009A4203D13B6A1A6AFB695A603B6A0022A7
:102B70009A62FB691B685A1EFB691A604A4B1B6804
:102B8000002B60D13B6A5B697B613B6A9B683A6A58
:102B9000D2689A603B6ADB683A6A92685A607B69DD
:102BA0005A683B6A04339A4203D13B6ADA687B690C
:102BB0005A603B6A00225A617B691B685A1E7B6916
:102BC0001A603B6ADB6A01229A40384B1B68134348
:102BD000364A13603B6ADA6A354913469B00134450
:102BE0009B000B4404331B683B613B6A3A699A6063
:102BF0003B699A683B6ADA603B699B683A6A0432CF
:102C00005A603B6A1A1D3B699A603B6ADA6A13464E
:102C10009B0013449B00264A1A443B6A5A613B6A54
:102C2000DA6A234913469B0013449B000B441B683C
:102C30003A6AD26A591C1E4813469B0013449B00F3
:102C4000034419601BE01B4B5B68BB613B6ABA69BC
:102C5000DA61BB699A683B6A1A62BB699B683A6A27
:102C600018325A603B6A03F11802BB699A603B6AEA
:102C7000104A9A620F4B1B6801330E4A13603B6A7D
:102C8000DA6A0D4B1B68DB6A9A4205D901237B6225
:102C90000A4B01221A6001E000237B627B6A18461E
:102CA0002C37BD4680BC7047A80100208801002059
:102CB0009800002040010020940000209401002092
:102CC00080B483B000AF7860064B1A687B681A60E6
:102CD000054B1A687B685A6000BF0C37BD4680BC44
:102CE000704700BF980100208401002080B588B0A3
:102CF00000AF786039607B68002B0BD14FF0500338
:102D000083F31188BFF36F8FBFF34F8F3B6100BF19
:102D100000BFFDE73B68002B0BD14FF0500383F35E
:102D20001188BFF36F8FBFF34F8FFB6000BF00BFF1
:102D3000FDE700F089FB1F4B1B68BB617B685B688C
:102D4000BA69D31A7B613B681B68B3F1FF3F02D1BC
:102D50000023FB6126E07B681A68174B1B689A42C8
:102D60000AD07B685B68BA699A4205D30123FB618C
:102D70003B6800221A6015E03B681B687A699A423A
:102D80000BD23B681A687B69D21A3B681A60786874
:102D9000FFF796FF0023FB6104E03B6800221A6006
:102DA0000123FB6100F080FBFB6918462037BD461C
:102DB00080BD00BF840100209801002080B400AFD6
:102DC000034B01221A6000BFBD4680BC704700BFA4
:102DD0009401002080B582B000AF786000F052F816
:102DE000064B1B68012BF9D9054B4FF080521A6036
:102DF000BFF34F8FBFF36F8FF0E700BF9800002045
:102E000004ED00E080B582B000AF00237B600CE0F1
:102E10007A6813469B0013449B00124A13441846D9
:102E2000FEF7F0FB7B6801337B607B68052BEFD9F5
:102E30000D48FEF7E7FB0D48FEF7E4FB0C48FEF7F4
:102E4000E1FB0C48FEF7DEFB0B48FEF7DBFB0B4B10
:102E5000054A1A600A4B054A1A6000BF0837BD468A
:102E600080BD00BF98000020100100202401002038
:102E700040010020540100206C0100203801002096
:102E80003C01002080B582B000AF19E000F0DCFA10
:102E9000104BDB68DB687B607B6804331846FEF709
:102EA00014FC0D4B1B68013B0B4A13600B4B1B685A
:102EB000013B0A4A136000F0F7FA786800F010F856
:102EC000064B1B68002BE1D100BF00BF0837BD4691
:102ED00080BD00BF54010020800100206801002057
:102EE00080B582B000AF78607B681B6B184600F03D
:102EF000D9FC786800F0D6FC00BF0837BD4680BD1D
:102F000080B400AF094B1B681B68002B04D1084B31
:102F10004FF0FF321A6005E0044B1B68DB681B684A
:102F2000034A136000BFBD4680BC704738010020D3
:102F3000A001002080B483B000AF0B4B1B68002BB6
:102F400002D101237B6008E0084B1B68002B02D1F3
:102F500002237B6001E000237B607B6818460C370E
:102F6000BD4680BC704700BF8C010020A801002036
:102F700080B588B000AF78607B68BB610023FB61DF
:102F80007B68002B00F090804A4B1B68BA699A421C
:102F90000BD04FF0500383F31188BFF36F8FBFF353
:102FA0004F8F3B6100BF00BFFDE7BB699B6C002BEF
:102FB0000BD14FF0500383F31188BFF36F8FBFF332
:102FC0004F8FFB6000BF00BFFDE7BB699B6C5A1EC3
:102FD000BB699A64BB69DA6ABB695B6C9A4263D06D
:102FE000BB699B6C002B5FD1BB6904331846FEF7AD
:102FF0006CFB0346002B0AD1BB69DB6A012202FA93
:1030000003F3DA432C4B1B6813402B4A1360BB6954
:103010005A6CBB69DA62BB69DB6AC3F10602BB6941
:103020009A61BB69DB6A01229A40234B1B681343F8
:10303000214A1360BB69DA6A204913469B00134496
:103040009B000B4404331B687B61BB697A699A60FF
:103050007B699A68BB69DA607B699B68BA690432EC
:103060005A60BB691A1D7B699A60BB69DA6A1346AC
:103070009B0013449B00114A1A44BB695A61BB6907
:10308000DA6A0E4913469B0013449B000B441B68ED
:10309000BA69D26A591C094813469B0013449B0025
:1030A000034419600123FB61FB6918462037BD46C4
:1030B00080BD00BF940000208801002098000020FF
:1030C00080B588B000AF78603960374B1B68FB6112
:1030D000364B1B68BB61364B1B687B61354B1B68ED
:1030E00004331846FEF7F1FA0346002B0BD1314B9F
:1030F0001B68DB6A012202FA03F3DA432E4B1B68DA
:1031000013402D4A13607B68B3F1FF3F24D13B6825
:10311000002B21D0294B5B683B61264B1B683A6929
:103120009A60244B1B683A699268DA60214B1A68EE
:103130003B699B6804325A601E4B1B681A1D3B6931
:103140009A601C4B1B681D4A5A611C4B1B6801335B
:103150001A4A136000BF22E0FA697B681344FB60DF
:10316000144B1B68FA685A60FA68FB699A4207D2E6
:10317000104B1B68043319467869FEF76EFA0EE0AF
:103180000C4B1B6804331946B869FEF766FA0C4B02
:103190001B68FA689A4202D2094AFB68136000BFB2
:1031A0002037BD4680BD00BF8401002038010020CB
:1031B0003C01002094000020880100206C010020C8
:1031C000A001002080B485B000AFF860B9607A60DB
:1031D000FB68043BFB60FB684FF080721A60FB6881
:1031E000043BFB60BB6823F00102FB681A60FB68CC
:1031F000043BFB60084AFB681A60FB68143BFB60F9
:103200007A68FB681A60FB68203BFB60FB68184625
:103210001437BD4680BC70471D32000880B485B0AD
:1032200000AF00237B60124B1B68B3F1FF3F0BD054
:103230004FF0500383F31188BFF36F8FBFF34F8FAD
:10324000FB6000BF00BFFDE74FF0500383F3118820
:10325000BFF36F8FBFF34F8FBB6000BF00BF7B68B2
:10326000002BFCD000BF00BF1437BD4680BC7047A8
:10327000000000200000000000000000000000002E
:10328000074B19680868B0E8F00F80F30988BFF3AE
:103290006F8F4FF0000080F311884EF00D0E7047D5
:1032A0009400002000BF00BF06480068006880F35B
:1032B000088862B661B6BFF34F8FBFF36F8F00DF30
:1032C00000BF000008ED00E000BF00BF80B58AB07D
:1032D00000AF544B1B687B627B6A2C331B68524ADD
:1032E00093420BD04FF0500383F31188BFF36F8FDD
:1032F000BFF34F8FBB6100BF00BFFDE77B6A383370
:103300001B684A4A93420BD04FF0500383F3118855
:10331000BFF36F8FBFF34F8FFB6100BF00BFFDE7AF
:103320000023BB60424B3B623B6A1B78DBB2FB7302
:103330003B6AFF221A703B6A1B78DBB2FB71FB7998
:10334000DBB203F05003DAB23A4B1A70394B1B78F8
:10335000002B0BD14FF0500383F31188BFF36F8F15
:10336000BFF34F8F7B6100BF00BFFDE7FB79DBB28E
:10337000DB4303F05003002B13D04FF0500383F3D3
:103380001188BFF36F8FBFF34F8F3B6100BF00BF4A
:10339000FDE7BB680133BB60FB79DBB25B00DBB2EE
:1033A000FB71FB79DBB203F08003802BF1D0BB68AB
:1033B000082B03D1204B00221A6004E0BB68C3F144
:1033C00007031D4A13601C4B1B681B021A4A13603B
:1033D000194B1B6803F4E063174A1360FB7BDAB2F6
:1033E0003B6A1A70154B1B68144A43F47F03136041
:1033F000124B1B68114A43F07F431360104B0022AD
:103400001A6000F0C3F80F4B00221A60FFF74CFF60
:10341000FFF7FCFAFFF702FF002318462837BD46E6
:1034200080BD00BF08ED00E08132000801350008D2
:1034300000E400E0AC010020B001002020ED00E03D
:103440001CED00E00000002080B483B000AF4FF01E
:10345000500383F31188BFF36F8FBFF34F8F7B60EF
:1034600000BF0F4B1B6801330D4A13600C4B1B68E8
:10347000012B10D10B4B1B68DBB2002B0BD04FF094
:10348000500383F31188BFF36F8FBFF34F8F3B60FF
:1034900000BF00BFFDE700BF0C37BD4680BC7047D2
:1034A0000000002004ED00E080B483B000AF124BB8
:1034B0001B68002B0BD14FF0500383F31188BFF32F
:1034C0006F8FBFF34F8F7B6000BF00BFFDE70A4BDC
:1034D0001B68013B084A1360074B1B68002B05D192
:1034E00000233B603B6883F3118800BF00BF0C37AB
:1034F000BD4680BC704700BF0000002000000000F7
:10350000EFF30980BFF36F8F0D4B1A6820E9F00FBE
:1035100010602DE908404FF0500080F31188FFF74C
:1035200075FA4FF0000080F31188BDE80840196873
:103530000868B0E8F00F80F30988BFF36F8F704719
:103540009400002000BF00BF80B582B000AF4FF0F4
:10355000500383F31188BFF36F8FBFF34F8F7B60EE
:1035600000BFFFF739F90346002B03D0064B4FF09D
:1035700080521A6000233B603B6883F3118800BFD0
:1035800000BF0837BD4680BD04ED00E080B400AF49
:10359000074B00221A60074B00221A60064B074AAD
:1035A0001A60034B07221A6000BFBD4680BC7047FB
:1035B00010E000E018E000E014E000E03F19010036
:1035C00080B485B000AFEFF30583FB60FB680F2B81
:1035D00015D9174AFB6813441B78FB72154B1B78EF
:1035E000FA7A9A420BD24FF0500383F31188BFF35B
:1035F0006F8FBFF34F8F7B6000BF00BFFDE70E4BA7
:103600001B6803F4E0620D4B1B689A420BD94FF024
:10361000500383F31188BFF36F8FBFF34F8F3B606D
:1036200000BF00BFFDE700BF1437BD4680BC704738
:10363000F0E300E0AC0100200CED00E0B001002060
:1036400080B58EB000AF78600023FB627B68002BF2
:1036500022D00823DB437A689A421BD808227B6871
:1036600013447B607B6803F00703002B14D07B6856
:1036700003F00703C3F10803BB62BB6ADB437A684C
:103680009A4204D87A68BB6A13447B6004E0002342
:103690007B6001E000237B60FEF770FF7A4B1B68C4
:1036A000002B01D100F074F97B68002BC0F2D380AD
:1036B0007B68002B00F0CF80744B1B687A689A42BD
:1036C00000F2C980724B3B63714B1B687B637B6B61
:1036D000704A934205D37B6B6F4A934201D8012312
:1036E00000E00023002B29D14FF0500383F3118811
:1036F000BFF36F8FBFF34F8F3B6200BF00BFFDE78B
:103700007B6B3B637B6B1B687B637B6B614A934288
:1037100005D37B6B604A934201D8012300E000236C
:10372000002B0BD14FF0500383F31188BFF36F8F41
:10373000BFF34F8FFB6100BF00BFFDE77B6B5B6892
:103740007A689A4203D97B6B1B68002BD8D14E4B09
:103750001B687A6B9A427ED03B6B1B68082213442D
:10376000FB62FB6A4B4A934205D3FB6A4A4A934287
:1037700001D8012300E00023002B0BD14FF05003B0
:1037800083F31188BFF36F8FBFF34F8FBB6100BF0F
:1037900000BFFDE77B6B1A683B6B1A607B6B5B6855
:1037A0007A689A420BD94FF0500383F31188BFF324
:1037B0006F8FBFF34F8F7B6100BF00BFFDE77B6B57
:1037C0005A687B68D21A08235B009A4224D97A6B24
:1037D0007B6813447B627B6A03F00703002B0BD0EA
:1037E0004FF0500383F31188BFF36F8FBFF34F8FF8
:1037F0003B6100BF00BFFDE77B6B5A687B68D21A54
:103800007B6A5A607B6B7A685A603B6B1A687B6A8A
:103810001A603B6B7A6A1A601C4B1A687B6B5B6898
:10382000D31A1A4A1360194B1A681C4B1B689A4228
:1038300003D2164B1B68194A13607B6B5B6843F01D
:1038400000427B6B5A607B6B00221A60144B1B6832
:103850000133134A1360FEF79FFEFB6A03F0070370
:10386000002B0BD04FF0500383F31188BFF36F8F01
:10387000BFF34F8FFB6000BF00BFFDE7FB6A184638
:103880003837BD4680BD00BFBC290020C0290020BC
:10389000B4290020B4010020B3290020C42900204D
:1038A000C829002080B588B000AF78607B68FB61D4
:1038B0007B68002B60D008235B42FA691344FB61EC
:1038C000FB69BB61BB692E4A934205D3BB692D4A94
:1038D000934201D8012300E00023002B0BD14FF0CD
:1038E000500383F31188BFF36F8FBFF34F8F7B615A
:1038F00000BF00BFFDE7BB695B68002B0BDB4FF02F
:10390000500383F31188BFF36F8FBFF34F8F3B6179
:1039100000BF00BFFDE7BB691B68002B0BD04FF059
:10392000500383F31188BFF36F8FBFF34F8FFB609A
:1039300000BF00BFFDE7BB695B68002B1CDABB69F9
:103940001B68002B18D1BB695B6823F00042BB6980
:103950005A60FEF713FEBB695A680B4B1B68134491
:10396000094A1360B86900F06DF8084B1B68013311
:10397000064A1360FEF710FE00BF2037BD4680BD2B
:10398000B4010020B3290020C0290020CC29002048
:1039900080B485B000AF4FF42053BB60244BFB6074
:1039A000FB6803F00703002B0CD0FB680733FB60B8
:1039B000FB6823F00703FB60BA68FB68D31A1C4A54
:1039C0001344BB60FB681B4A13601A4B00225A6009
:1039D000FA68BB6813447B6008227B689B1A7B6093
:1039E0007B6823F007037B607B68134A1360124BEC
:1039F0001B6800225A60104B1B6800221A60FB688B
:103A00003B603B687A68D21A3B685A600A4B1A6876
:103A10003B681A603B685B68084A13603B685B68F8
:103A2000074A136000BF1437BD4680BC704700BF13
:103A3000B4010020B4290020BC290020C4290020A2
:103A4000C029002080B487B000AF7860364B7B611E
:103A500002E07B691B687B617B691B687A689A421C
:103A6000F7D87B69304A934218D07B692F4A93423A
:103A700005D37B692E4A934201D8012300E000233D
:103A8000002B0BD14FF0500383F31188BFF36F8FDE
:103A9000BFF34F8FFB6000BF00BFFDE77B693B6159
:103AA0007B695B683A6913447A689A4208D17B69FA
:103AB0005A687B685B681A447B695A607B697B60E3
:103AC0007B683B617B685B683A691A447B691B6869
:103AD0009A4218D17B691A68164B1B689A420DD01E
:103AE0007B685A687B691B685B681A447B685A600C
:103AF0007B691B681A687B681A6008E00D4B1A68BE
:103B00007B681A6003E07B691A687B681A607A69CF
:103B10007B689A4202D07B697A681A6000BF1C37C2
:103B2000BD4680BC704700BFB4290020B40100200E
:103B3000B3290020BC2900202DE9F0414FF00F0CE3
:103B400000250768466843FA05F4E4071CD5072DED
:103B500094BFBE46B646ACB24FEA84048ABF203C4E
:103B6000A4B2A4B20CFA04F82EEA080804F1020E7A
:103B700002FA0EFE01FA04F44EEA040444EA0804D0
:103B8000072D94BF274626460135102DDBD107604F
:103B90004660BDE8F081016170470904016170472A
:103BA000C36801EA030221EA030141EA024101611B
:103BB00070470000062824D8DFE800F004090E133F
:103BC000181D2000104B1868C0F3406070470E4B62
:103BD0001868C0F3C06070470B4B1868C0F34070A2
:103BE0007047094B1868C0F340407047064B18688F
:103BF000C0F340007047044B186AF9E7024B586A5B
:103C0000F6E70020704700BF00100240024608B5EA
:103C10001046FFF7CFFF0028FAD008BD06282AD8A3
:103C2000DFE800F0040A0F14191E2400124A13687A
:103C300043F08073136070470F4A136843F080634A
:103C4000F8E70D4A136843F08053F3E70A4A136814
:103C500043F48033EEE7084A136843F00103E9E7D1
:103C6000054A136A43F0010313627047024A536A1C
:103C700043F001035362704700100240034A536847
:103C800023F0030303435360704700BF001002405A
:103C9000034A536823F4701343EA80435360704728
:103CA00000100240034AD36A23F4706343EA0023FE
:103CB000D362704700100240034AD36A23F4704372
:103CC00043EA0033D362704700100240034A53684E
:103CD00023F4803343EA00435360704700100240EE
:103CE000034A536823F4003343EA40435360704768
:103CF00000100240034A536823F4404343EA8033F0
:103D00005360704700100240034A536823F4605325
:103D100043EAC0235360704700100240034A5368CF
:103D200023F4E06343EA002353607047001002402D
:103D3000034A536823F0F00343EA001353607047CB
:103D400000100240044B5A6818B142F480025A60D5
:103D5000704722F48002FAE700100240034AD36A57
:103D600023F00F030343D362704700BF00100240EB
:103D7000034AD36A23F0F00343EA0013D362704787
:103D800000100240044BDA6A18B142F48032DA6261
:103D9000704722F48032FAE70010024010B5044662
:103DA0004378012B0CBF03200420FFF737FFFFF7F8
:103DB0002DFFA078FFF7BCFFE078FFF7AFFF207979
:103DC000FFF7A2FF6079FFF795FF207BFFF7BAFFAF
:103DD000A07900F017F92078FFF75AFF6078FFF715
:103DE00075FFE07901282DD9FFF7B8FF207A08B1D7
:103DF000FFF7C8FF607A08B1FFF7BAFFA07A30B1C9
:103E0000FFF750FF0120FFF709FFFFF7FFFEE07A01
:103E100030B1FFF751FF0220FFF700FFFFF7F6FE7A
:103E20000020FFF7FBFEFFF7F1FE0220FFF726FF61
:103E30002269064B1A606269054B1A60A269054B3C
:103E40001A6010BDFFF74CFFD0E700BF0400002050
:103E50000C00002008000020034B98420CBF034BCD
:103E6000034B1868704700BF00380140080000206D
:103E70000C0000200122430903F1804303F50433C1
:103E8000196800F01F0082400A431A60704738B575
:103E90000C460546FFF7E0FF00EB5403B3FBF4F3D9
:103EA000AB6038BDC36808290CBF23F4805343F4CA
:103EB0008053C3607047036923F440530B4303618D
:103EC0007047C36823F4C0630B43C3607047C36883
:103ED00023F00C030B43C3607047436923F4407322
:103EE0000B4343617047C36843F40053C36070479A
:103EF00038B504460D4600F013F829462046BDE8C3
:103F0000384000F005B8C36843F02003C360704731
:103F1000C1F30801416070474068C0F30800704772
:103F200003681B06FCD5704703680B4214BF0120D1
:103F300000207047FEE7704738B51A4A1A4B1B49F4
:103F40008B421AD300211A4A93421BD34FF0E0222E
:103F5000D2F8143D174C43F40073174DC2F8143DCA
:103F6000AC4212D3154C164DAC4212D3FCF7F0F80C
:103F7000144C154DAC4210D338BD52F8040B43F825
:103F8000040BDDE743F8041BDEE754F8043B9847D5
:103F9000E6E754F8043B9847E6E754F8043B9847B3
:103FA000E8E700BFE55300080000002060000020A3
:103FB000E0290020E0290020E0290020E02900205D
:103FC000E0290020E0290020E02900200122430907
:103FD0009B0003F1604300F01F0003F56143824042
:103FE0001A607047432893BF00F16040044B00F013
:103FF0000F0000F564408CBFC1540170704700BFD2
:1040000014ED00E0034A136823F007030343136031
:10401000704700BF0020024020F0030110F00300B1
:10402000C0F1000051F8043B00F1040C4FEACC0C45
:104030006FF000021CBF22FA0CF213434FF0010C88
:104040004CEA0C2C4CEA0C4CA3EB0C0222EA0302C7
:1040500012EACC1204BF51F8043B0430F4D0C2F190
:10406000000102EA0102B2FA82F2C2F11F0200EB81
:10407000D200704770B5860747D0541E002A3ED044
:104080000346CAB201E0013C39D303F8012B9D0776
:10409000F9D1032C2CD9CDB205EB05250F2C1A46EE
:1040A00005EB054534D9A4F1100C2CF00F0603F1F3
:1040B000100EB6444FEA1C1CC2E90055C2E9025575
:1040C00010327245F8D10CF1010214F00C0F03EB21
:1040D000021204F00F0C13D0ACF1040323F003031D
:1040E0000433134442F8045B9342FBD10CF0030405
:1040F0002CB1C9B21C4403F8011BA342FBD170BD13
:1041000064461346002CF4D1F9E703461446C0E791
:10411000A446E1E7844641EA000313F0030349D1D2
:10412000403A23D30B6803604B6843608B6883601D
:10413000CB68C3600B6903614B6943618B69836121
:10414000CB69C3610B6A03624B6A43628B6A836209
:10415000CB6AC3620B6B03634B6B43638B6B8363F1
:10416000CB6BC36340304031403ADBD230320BD3AB
:104170000B6803604B6843608B688360CB68C360E7
:1041800010301031103AF3D20C3205D351F8043B01
:1041900040F8043B043AF9D2043208D0D2071CBFDD
:1041A00011F8013B00F8013B01D30B880380604606
:1041B000704700BF082A13D38B07B1D010F0030358
:1041C000AED0C3F10403D21ADB071CBF11F8013BC8
:1041D00000F8013BA4D331F8023B20F8023B9FE7F3
:1041E000043AD9D3013A11F8013B00F8013BF9D266
:1041F0000B7803704B7843708B7883706046704700
:1042000040EA01039B0710B524D1032A22D98E4628
:104210008446DEF800407146A4F1013323EA04032A
:1042200013F0803F0EF1040E15D1043A032A4CF826
:10423000044BEED8714601F1FF3E52B163461EF8C1
:10424000011F541E03F8011B41B122469C46002A5F
:10425000F4D110BD844601F1FF3EEEE79444002CFA
:10426000F7D003F8011B6345FBD110BD002A3ED0F7
:10427000844630B50446084380070B462ED1032AF6
:1042800007D82BE0043A25D01EF0803F22D1032A24
:1042900022D919462068A446A0F1013323EA000E72
:1042A0000B4653F8045B0434A842EBD09CF80000A2
:1042B0000C7884421DD1E64668B11EF8010F11F852
:1042C000014FA2EB0E03A04203F1FF3311D11CEB0F
:1042D0000303F1D1002030BDA44619469CF800002C
:1042E0000C78A04205D1012AF4D0E646E4E7104656
:1042F0007047001B30BD00BF80EA010C1CF0030FAB
:1043000037D110F0030C20F0030021F0030150F826
:10431000042B08BF51F8043B0ED08CF0030C6FF057
:104320007F434FEACC0C23FA0CFC51F8043B42EAE1
:104330000C0243EA0C0300BFA2F1013C9A4201BF08
:104340002CEA020C1CF0803F50F8042B51F8043B7F
:10435000F2D04FEA02604FEA1222012828BFB0EBE8
:10436000036F08BF1B0AF4D003F0FF03000EC01A4E
:10437000704710F0030F0AD010F8012B11F8013B21
:10438000012A28BF9A42F4D0A2EB030070474DF8EF
:10439000045D50F8042B01F0030521F0030151F8EE
:1043A000043B022D26D04DD822F07F45B5EB132FCC
:1043B000A2F1013C2CEA020C0DD11CF0803C08BF9C
:1043C00051F8043B0AD185EA0205B5EB036F0CD125
:1043D00050F8042BE8E74FEA13235BE03CF07F4CF6
:1043E00054D10B784FEA126554E04FEA126503F09E
:1043F000FF034FE04FEA0245A2F1013C4FEA1545A9
:104400002CEA020CB5EB134F18D11CF0803C08BF0E
:1044100051F8043B07D185EA0205B5EB034F09D1FA
:1044200050F8042BE6E75FEA0C4C2FD10B884FEADB
:1044300012452FE04FEA03434FEA12454FEA134378
:1044400028E000BF02F0FF05B5EB136FA2F1013CBD
:104450002CEA020C0DD11CF0803C08BF51F8043B43
:104460000AD185EA0205B5EB032F0AD150F8042BD7
:10447000E8E74FEA13630DE012F0FF0F06D051F8A2
:10448000043B4FEA122523F07F4303E04FF0000086
:1044900020BC704705F0FF0203F0FF00012828BF91
:1044A000904204BF2D0A1B0AF4D0A2EB000020BCEE
:1044B000704700BF08B410B5002A04469DB034DB35
:1044C0004FF4027C4FF00003ADF814C01B934FF67D
:1044D000FF7C0291069120AB15D0013A049207921D
:1044E00002A91F9A0193ADF816C000F051F9421CC1
:1044F00001DA8B2323600022029B1A701DB0BDE8F5
:10450000104001B070470492079202A91F9A0193CC
:10451000ADF816C000F03CF9431C01DA8B23236090
:104520001DB0BDE8104001B070478B234FF0FF3045
:104530002360F5E70CB410B5204B00291C689CB033
:1045400036DB4FF000034FF402721B934FF6FF7CF3
:1045500002900690ADF814201FAB16D001391E9AB8
:1045600004910791204602A90193ADF816C000F00E
:104570000FF9421C01DA8B2323600022029B1A7080
:104580001CB0BDE8104002B070470491079120466E
:104590001E9A02A90193ADF816C000F0F9F8431C69
:1045A00001DA8B2323601CB0BDE8104002B07047D5
:1045B0008B234FF0FF302360F5E700BF1000002091
:1045C0002DE9F0471D468F680C46AF4216460B6832
:1045D00036D8B1F90CC01CF4906F0ED13D46184688
:1045E00031462A4600F0F0FA0020A368DF1B23685A
:1045F000A7602B442360BDE8F0874A69096902EB94
:1046000042025F1A02EBD2726B1C52103B4493427F
:1046100092BF914699461A461CF4806F804611D08D
:10462000114600F0F3F9824600B33A462169FFF7DC
:1046300071FDA38923F4906343F08003A38105E017
:104640002F46CCE700F03EFB824658B10AEB070349
:10465000A9EB0707A760C4F810A02F46C4F8149070
:104660002360BCE74046216900F050FA0C22A38980
:104670004FF0FF3043F04003C8F80020A381BAE7B1
:104680002DE9F04F936883B0924617680190002B94
:1046900076D04FF0000B0C465D468B680A6848E008
:1046A000B4F90CC01CF4906F2FD0D4E90403A2EB32
:1046B000000803EB430202EBD27208F10101521031
:1046C0002944914292BF914689460A461CF4806F64
:1046D00039D01146019800F099F9064600283DD0DE
:1046E00042462169FFF716FDA28922F4906242F04A
:1046F0008002A28106EB0800A9EB08022661A84609
:104700002E46A2602060C4F814903246594600F04C
:104710005BFADAF80810A3682268A3EB08033244B6
:10472000491BA3602260CAF8081049B3D7E900B555
:10473000083798461046002DF8D09D421E46AFD24D
:10474000A8462E46E1E70146019800F0BBFA06466E
:104750000028CFD10198216900F0D8F90C21A38954
:10476000019D43F0400329600022A3814FF0FF30F8
:104770000023CAF80820CAF8043003B0BDE8F08F5F
:1047800000200023CAF8043003B0BDE8F08F00BF5A
:104790002DE9F04F1C468B8989461D0682469346BB
:1047A0009DB003D50B69002B00F0EE80002343F28F
:1047B000200209939BF8003001277C4E0394ADF84A
:1047C0002920002B71D05D4603E015F8013F002B36
:1047D00073D0252BF9D1B5EB0B0471D12A78002ABF
:1047E00063D000234FF0FF320135CDE90523049358
:1047F00007938DF853301A9306E02546049B801BDF
:1048000007FA00F0034304932C46052214F8011B19
:10481000304600F061FCA3460028EED1049BD90687
:1048200044BF20228DF853201A0748BF2B22297835
:1048300048BF8DF853202A294FD1039A11680432BA
:10484000002903927BDB079169782E295BD0584CB5
:104850000322204600F040FC38B14022049B001B9C
:10486000824013430BF1010B04931BF8011B06223A
:1048700050488DF8281000F02FFC002865D04E4BD2
:10488000002B55D003A900914A4650464B4B04A932
:10489000AFF300808046B8F1FF3F06D0099B434448
:1048A00009939BF80030002B8DD1B9F80C305B06D2
:1048B00079D409981DB0BDE8F08FB5EB0B04F4D0A6
:1048C00023465A4649465046FFF77AFE0130ECD05F
:1048D000099B2A782344099381E7A1F13002092A30
:1048E00088BFAB46B1D8079B00E00134217803EBC9
:1048F000830302EB4303A1F13002092AF5D92E29E3
:10490000A3460793A3D19BF801102A2927D1039B23
:104910000BF102001A680433002A0393B8BF4FF06A
:10492000FF339BF8021005928346B8BF05938EE7CC
:10493000039B073323F0070308330393AEE7494291
:1049400043F00203079104937EE703A900914A46CE
:1049500050461A4B04A900F079FA80469BE70023E1
:10496000A1F13002092A0BF1010B05933FF66FAF5D
:104970001BF8011F03EB830302EB4303A1F1300299
:10498000092AF5D9059362E7402100F03FF8C9F8FC
:104990000000C9F8100018B14023C9F8143005E729
:1049A0000C23CAF800304FF0FF3083E7AC53000807
:1049B000B4530008B853000800000000C1450008C7
:1049C00070B5114E054633680C46BBB121462846EA
:1049D00000F0CEFB431C01460CD0C41C24F00304A1
:1049E000A04205D02846611A00F0C2FB013001D078
:1049F000204670BD4FF0FF34204670BD194600F0D0
:104A0000B7FB3060E2E700BFD02900202DE9F84372
:104A1000CD1C25F0030508350C2D38BF0C25002DC5
:104A2000064618DBA94216D8DFF8DC8000F050FB00
:104A3000D8F80420A2B1144603E0636822467BB193
:104A40001C4623685B1BF8D40B2B1FD89442636869
:104A500054D053600CE00C2333600020BDE8F88391
:104A600029463046FFF7ACFF431C044619D00560C9
:104A7000304600F02FFB04F10B00231D20F007004F
:104A8000C21A1CBF1B1AA350BDE8F88361199442D7
:104A9000256014BF5160C8F80410635163684B600F
:104AA000E6E7D8F804701FB33C467F68002FFBD1BF
:104AB00023683946304604EB030900F059FB814571
:104AC00016D123683046ED1A2946FFF779FF0130E9
:104AD0000ED02368D8F804202B442360536883B198
:104AE000A34203D01A465B689C42FBD10023B0E787
:104AF0000C233046336000F0EDFAAEE7C8F804301E
:104B0000B6E7C8F80470B3E7D0290020002950D0D8
:104B100038B551F8043C0C1F002BB8BFE41805460B
:104B200000F0D6FA274A13682BB1A3420CD92168AA
:104B3000601883422CD0284663601460BDE838407A
:104B400000F0C8BAA3420FD81A465B68002BF9D10F
:104B500011685018844217D02CD3636054602846E3
:104B6000BDE8384000F0B6BA11685018A04214D021
:104B700020D8216860188342EFD118685B68084428
:104B8000C4E900035460EAE723680B441360E6E7D6
:104B900018685B6808442060CDE72068014450181D
:104BA00083421160DBD1D3E900040144C2E900145F
:104BB000D5E770470C2328462B60BDE8384000F04D
:104BC00089BA00BFD429002088420ED98B188342AD
:104BD0000BD900EB020C002A6DD0624613F801CD10
:104BE000994202F801CDF9D170470F2A0FD8034638
:104BF00002F1FF3C002A5ED00CF1010C013B8C4419
:104C000011F8012B614503F8012FF9D1704740EAF3
:104C100001039B0750D1A2F1100370B501F1200CE4
:104C200023F00F0501F1100E00F11004AC441B0934
:104C30005EF8105C0EF1100E44F8105C5EF81C5C1F
:104C4000103444F81C5C5EF8185C44F8185C5EF89C
:104C5000145CE64544F8145CEAD1013312F00C0F01
:104C600001EB031102F00F0400EB031328D08E4672
:104C7000043C24F003064FEA940C1E441C1F5EF80B
:104C8000045B44F8045FB442F9D10CF1010402F072
:104C9000030203EB840301EB840102F1FF3C4AB100
:104CA0000CF1010C013B8C4411F8012B614503F818
:104CB000012FF9D170BD7047034602F1FF3C9BE71D
:104CC0002246EAE72DE9F041144641B30AB306460D
:104CD0000D4600F05FFA8442074602D8B4EB500F4D
:104CE00013D821463046FFF791FE804650B1BC42B2
:104CF0002246294628BF3A46FFF70CFA2946304695
:104D0000FFF704FF4046BDE8F081A8464046BDE8F5
:104D1000F081A046FFF7FAFE4046BDE8F08111465B
:104D2000BDE8F041FFF772BE2DE9F84F92461F46ED
:104D30000A698B680C469A42B8BF1A46CAF8002026
:104D400091F843300646DDF8289013B10132CAF8D5
:104D50000020226891065FD5DAF800300233CAF8E5
:104D60000030226812F0060F11461DD1E168994209
:104D7000D8BF114618DD4FF0000804F1190B05E00B
:104D8000E568DAF80030ED1A45450CDD01235A4696
:104D900039463046C847013008F10108F0D14FF0DC
:104DA000FF30BDE8F88F216894F84330003B18BF0E
:104DB00001238A060AD53021E21882F8431094F8BC
:104DC00045105A1C2244023382F8431039463046BB
:104DD00004F14302C8470130E1D0D4E9022023683E
:104DE000DAF8005003F00603042B21691BD08A4235
:104DF00020DD4FF00008521A904400251A3401E0DB
:104E0000454517DA0123224639463046C847013066
:104E100005F10105F4D1C2E712F0060F0DD0003BF9
:104E200018BF0123D2E7401B8A4220EAE078E2DC87
:104E30000028E2DC0020BDE8F88FE168DAF80030F5
:104E40009942D8BF114696DCAEE700BF2DE9F04786
:104E500017460A7E84B00C46064698460C9D01F122
:104E6000430C002A35D0A2F15803D9B2202969D8C1
:104E7000202B67D8DFE813F0E600660066006600C6
:104E80006600660066006600660066006600AC00AC
:104E900070006600660066006600700066006600CE
:104EA0006600660021008300C60066006600B6004A
:104EB0006600830066006600EC002B682268181DFF
:104EC0006169286010061B6802D4520600F1E08078
:104ED00019600023E14623613B4621463046CDF868
:104EE000008003AAFFF720FF013020D04A46394650
:104EF00030462369C047013019D02368E0689B071A
:104F0000DDF80C9018D5484516DD002504F1190A86
:104F100004E0E068A0EB0903AB420DDD012352463B
:104F200039463046C047013005F10105F1D14FF057
:104F3000FF3004B0BDE8F0874845B8BF484604B02C
:104F4000BDE8F087012084F8422004F142090023E3
:104F5000206184F84330BFE72A682368111D1806D2
:104F6000296002D4590600F1958010680146002896
:104F70006268C0F293804FF00A0E534815E0206833
:104F80002B6810F0800F53F8041B02D1400648BF75
:104F900089B26F2A14BF4FF00A0E4FF0080E4A482C
:104FA0002B600023626884F84330002AA26051DB42
:104FB000236823F00403236000294BD1002A7BD10E
:104FC000E146BEF1080F56D0ACEB0903236183E73D
:104FD0002A680120116804322A6004F1420984F829
:104FE0004210B4E72B6800211A1D2A60D3F8009004
:104FF0006268484600F070F8002863D0A0EB090012
:105000006060A4E7236843F02003236078222F48E0
:1050100084F845202A6813F0800F52F8041B03D14E
:1050200013F0400F18BF89B22A60DA0744BF43F07B
:105030002003236019B9236823F0200323604FF075
:10504000100EAEE75823204884F845302368E1E786
:105050002368DBE77546E146B1FBF5F30A4605FB3D
:10506000131A194610F80A30AA4209F8013DF3D282
:10507000BEF1080FA8D12368DD07A5D562682369B2
:105080009A42A1DC302309F1FF3989F800309BE70F
:1050900019801EE7B2F90010084668E72D20002AA3
:1050A000A26084F8430002DB23F0040323600A2596
:1050B0000548AE464942CEE7037804F1420984F838
:1050C00042307EE7606842E7C0530008D4530008CE
:1050D000704700BF704700BF5FFA81FC810744D072
:1050E0000346511E22B909E09A0709D0013905D3B8
:1050F0001846027801336245F6D1704700207047A8
:10510000184603290CD80029F8D00346014401E0D1
:105110008B42F3D0184613F8012B6245F8D1704743
:1051200010B50CEB0C24024604EB044402E00439F5
:10513000032915D9104652F8043B6340A3F1013E00
:105140002EEA030313F0803FF1D00346014401E04F
:105150008B4208D0184613F8012B6245F8D110BDD8
:1051600010460029F1D1002010BD1146C9E700BF4B
:10517000002238B5064D044608462A6000F012F8B1
:10518000431C00D038BD2B68002BFBD0236038BDFA
:10519000D829002051F8043C181F002BBCBF0B5825
:1051A000C0187047044A05491368002B08BF0B4616
:1051B0001844106018467047DC290020E0290020C0
:1051C000756172745F72780070617273657200004D
:1051D0006170700074656C656D65747279000000B3
:1051E0006163747561746F7273000000756172742D
:1051F0005F747800434D44004441540045565400C8
:105200005354530041434B0045525200494E5600FF
:105210006C65643D6F6E00006F6E00006C65643DF0
:105220006F6666006F6666006C65643D746F6767E5
:105230006C650000746F67676C6500006C656400E6
:10524000636F64653D756E65787065637465645FF2
:105250007479706500000000636D643D6F6B000041
:1052600070696E6700000000706F6E673D3100006E
:105270007374617475733F00636F64653D756E6B25
:105280006E6F776E5F636D640000000072783D257D
:105290006C752C61653D256C752C6972713D256CB2
:1052A000752C70623D256C752C706D3D256C752CD0
:1052B00070653D256C752C71643D256C7500000092
:1052C000636F64653D7374617475735F6F76657247
:1052D000666C6F770000000010520008185200083A
:1052E0001C520008245200082852000834520008BA
:1052F00074656D703D25752C7365713D256C750069
:105300006C6564006F6E00006F666600746F67679F
:105310006C6500000500000049444C450000000099
:105320000401000400020200000000000000000070
:1053300000A24A040051250200A24A040701000409
:1053400000020201000000000000000000A24A0468
:105350000051250200A24A040701000400020204D1
:10536000010406000000000000A24A0400512502CA
:1053700000A24A040101000000000000000000003B
:105380000000000000366E0100366E0100366E012E
:1053900007010004000302000000000000000000FC
:1053A00000A24A040051250200A24A04232D302BFA
:1053B00020000000686C4C006566674546470000A9
:1053C000303132333435363738394142434445463B
:1053D00000000000303132333435363738396162FD
:0553E000636465660036
:1053E500AAAAAAAA00127A0000127A0000127A006C
:1053F500140000200000000000000000680000000C
:10540500D0000000000000000000000000000000C7
:105415000000000000000000000000000000000087
:105425000000000000000000000000000000000077
:105435000000000000000000000000000000000067
:0400000508003F3977
:00000001FF
